{
  "_format": "hh-sol-artifact-1",
  "contractName": "TokenizedBallot",
  "sourceName": "contracts/TokenizedBallot.sol",
  "abi": [
    {
      "inputs": [
        {
          "internalType": "bytes32[]",
          "name": "proposalNames",
          "type": "bytes32[]"
        },
        {
          "internalType": "address",
          "name": "_tokenContract",
          "type": "address"
        },
        {
          "internalType": "uint256",
          "name": "_blockTarget",
          "type": "uint256"
        }
      ],
      "stateMutability": "nonpayable",
      "type": "constructor"
    },
    {
      "inputs": [],
      "name": "blockTarget",
      "outputs": [
        {
          "internalType": "uint256",
          "name": "",
          "type": "uint256"
        }
      ],
      "stateMutability": "view",
      "type": "function"
    },
    {
      "inputs": [
        {
          "internalType": "uint256",
          "name": "",
          "type": "uint256"
        }
      ],
      "name": "proposals",
      "outputs": [
        {
          "internalType": "bytes32",
          "name": "name",
          "type": "bytes32"
        },
        {
          "internalType": "uint256",
          "name": "voteCount",
          "type": "uint256"
        }
      ],
      "stateMutability": "view",
      "type": "function"
    },
    {
      "inputs": [],
      "name": "tokenContract",
      "outputs": [
        {
          "internalType": "contract IMyToken",
          "name": "",
          "type": "address"
        }
      ],
      "stateMutability": "view",
      "type": "function"
    },
    {
      "inputs": [
        {
          "internalType": "uint256",
          "name": "proposal",
          "type": "uint256"
        },
        {
          "internalType": "uint256",
          "name": "amount",
          "type": "uint256"
        }
      ],
      "name": "vote",
      "outputs": [],
      "stateMutability": "nonpayable",
      "type": "function"
    },
    {
      "inputs": [
        {
          "internalType": "address",
          "name": "account",
          "type": "address"
        }
      ],
      "name": "votePower",
      "outputs": [
        {
          "internalType": "uint256",
          "name": "",
          "type": "uint256"
        }
      ],
      "stateMutability": "view",
      "type": "function"
    },
    {
      "inputs": [
        {
          "internalType": "address",
          "name": "",
          "type": "address"
        }
      ],
      "name": "votingPowerSpent",
      "outputs": [
        {
          "internalType": "uint256",
          "name": "",
          "type": "uint256"
        }
      ],
      "stateMutability": "view",
      "type": "function"
    },
    {
      "inputs": [],
      "name": "winnerName",
      "outputs": [
        {
          "internalType": "bytes32",
          "name": "winnerName_",
          "type": "bytes32"
        }
      ],
      "stateMutability": "view",
      "type": "function"
    },
    {
      "inputs": [],
      "name": "winningProposal",
      "outputs": [
        {
          "internalType": "uint256",
          "name": "winningProposal_",
          "type": "uint256"
        }
      ],
      "stateMutability": "view",
      "type": "function"
    }
  ],
  "bytecode": "0x60806040523480156200001157600080fd5b5060405162000fa738038062000fa7833981810160405281019062000037919062000383565b816000806101000a81548173ffffffffffffffffffffffffffffffffffffffff021916908373ffffffffffffffffffffffffffffffffffffffff1602179055508060018190555060005b8351811015620001155760026040518060400160405280868481518110620000ae57620000ad620003fe565b5b60200260200101518152602001600081525090806001815401808255809150506001900390600052602060002090600202016000909190919091506000820151816000015560208201518160010155505080806200010c906200045c565b91505062000081565b50505050620004a9565b6000604051905090565b600080fd5b600080fd5b600080fd5b6000601f19601f8301169050919050565b7f4e487b7100000000000000000000000000000000000000000000000000000000600052604160045260246000fd5b620001838262000138565b810181811067ffffffffffffffff82111715620001a557620001a462000149565b5b80604052505050565b6000620001ba6200011f565b9050620001c8828262000178565b919050565b600067ffffffffffffffff821115620001eb57620001ea62000149565b5b602082029050602081019050919050565b600080fd5b6000819050919050565b620002168162000201565b81146200022257600080fd5b50565b60008151905062000236816200020b565b92915050565b6000620002536200024d84620001cd565b620001ae565b90508083825260208201905060208402830185811115620002795762000278620001fc565b5b835b81811015620002a6578062000291888262000225565b8452602084019350506020810190506200027b565b5050509392505050565b600082601f830112620002c857620002c762000133565b5b8151620002da8482602086016200023c565b91505092915050565b600073ffffffffffffffffffffffffffffffffffffffff82169050919050565b60006200031082620002e3565b9050919050565b620003228162000303565b81146200032e57600080fd5b50565b600081519050620003428162000317565b92915050565b6000819050919050565b6200035d8162000348565b81146200036957600080fd5b50565b6000815190506200037d8162000352565b92915050565b6000806000606084860312156200039f576200039e62000129565b5b600084015167ffffffffffffffff811115620003c057620003bf6200012e565b5b620003ce86828701620002b0565b9350506020620003e18682870162000331565b9250506040620003f4868287016200036c565b9150509250925092565b7f4e487b7100000000000000000000000000000000000000000000000000000000600052603260045260246000fd5b7f4e487b7100000000000000000000000000000000000000000000000000000000600052601160045260246000fd5b6000620004698262000348565b91507fffffffffffffffffffffffffffffffffffffffffffffffffffffffffffffffff82036200049e576200049d6200042d565b5b600182019050919050565b610aee80620004b96000396000f3fe608060405234801561001057600080fd5b50600436106100885760003560e01c8063a72003511161005b578063a720035114610118578063b384abef14610148578063e2ba53f014610164578063e490e6991461018257610088565b8063013cf08b1461008d578063037165f4146100be57806355a373d6146100dc578063609ff1bd146100fa575b600080fd5b6100a760048036038101906100a291906105bc565b6101b2565b6040516100b5929190610611565b60405180910390f35b6100c66101e6565b6040516100d3919061063a565b60405180910390f35b6100e46101ec565b6040516100f191906106d4565b60405180910390f35b610102610210565b60405161010f919061063a565b60405180910390f35b610132600480360381019061012d919061072d565b61035e565b60405161013f919061063a565b60405180910390f35b610162600480360381019061015d919061075a565b610376565b005b61016c610457565b604051610179919061079a565b60405180910390f35b61019c6004803603810190610197919061072d565b61048b565b6040516101a9919061063a565b60405180910390f35b600281815481106101c257600080fd5b90600052602060002090600202016000915090508060000154908060010154905082565b60015481565b60008054906101000a900473ffffffffffffffffffffffffffffffffffffffff1681565b600080600090506000805b6002805490508110156102ce57826002828154811061023d5761023c6107b5565b5b90600052602060002090600202016001015411156102895760028181548110610269576102686107b5565b5b9060005260206000209060020201600101549250809350600091506102bb565b826002828154811061029e5761029d6107b5565b5b906000526020600020906002020160010154036102ba57600191505b5b80806102c690610813565b91505061021b565b5060008211610312576040517f08c379a0000000000000000000000000000000000000000000000000000000008152600401610309906108b8565b60405180910390fd5b6000151581151514610359576040517f08c379a00000000000000000000000000000000000000000000000000000000081526004016103509061094a565b60405180910390fd5b505090565b60036020528060005260406000206000915090505481565b806103803361048b565b10156103c1576040517f08c379a00000000000000000000000000000000000000000000000000000000081526004016103b8906109b6565b60405180910390fd5b80600283815481106103d6576103d56107b5565b5b906000526020600020906002020160010160008282546103f691906109d6565b9250508190555080600360003373ffffffffffffffffffffffffffffffffffffffff1673ffffffffffffffffffffffffffffffffffffffff168152602001908152602001600020600082825461044c91906109d6565b925050819055505050565b60006002610463610210565b81548110610474576104736107b5565b5b906000526020600020906002020160000154905090565b600080600360008473ffffffffffffffffffffffffffffffffffffffff1673ffffffffffffffffffffffffffffffffffffffff1681526020019081526020016000205460008054906101000a900473ffffffffffffffffffffffffffffffffffffffff1673ffffffffffffffffffffffffffffffffffffffff16633a46b1a8856001546040518363ffffffff1660e01b815260040161052b929190610a19565b602060405180830381865afa158015610548573d6000803e3d6000fd5b505050506040513d601f19601f8201168201806040525081019061056c9190610a57565b6105769190610a84565b905080915050919050565b600080fd5b6000819050919050565b61059981610586565b81146105a457600080fd5b50565b6000813590506105b681610590565b92915050565b6000602082840312156105d2576105d1610581565b5b60006105e0848285016105a7565b91505092915050565b6000819050919050565b6105fc816105e9565b82525050565b61060b81610586565b82525050565b600060408201905061062660008301856105f3565b6106336020830184610602565b9392505050565b600060208201905061064f6000830184610602565b92915050565b600073ffffffffffffffffffffffffffffffffffffffff82169050919050565b6000819050919050565b600061069a61069561069084610655565b610675565b610655565b9050919050565b60006106ac8261067f565b9050919050565b60006106be826106a1565b9050919050565b6106ce816106b3565b82525050565b60006020820190506106e960008301846106c5565b92915050565b60006106fa82610655565b9050919050565b61070a816106ef565b811461071557600080fd5b50565b60008135905061072781610701565b92915050565b60006020828403121561074357610742610581565b5b600061075184828501610718565b91505092915050565b6000806040838503121561077157610770610581565b5b600061077f858286016105a7565b9250506020610790858286016105a7565b9150509250929050565b60006020820190506107af60008301846105f3565b92915050565b7f4e487b7100000000000000000000000000000000000000000000000000000000600052603260045260246000fd5b7f4e487b7100000000000000000000000000000000000000000000000000000000600052601160045260246000fd5b600061081e82610586565b91507fffffffffffffffffffffffffffffffffffffffffffffffffffffffffffffffff82036108505761084f6107e4565b5b600182019050919050565b600082825260208201905092915050565b7f5a65726f20766f74657320666f7220616c6c2070726f706f73616c7300000000600082015250565b60006108a2601c8361085b565b91506108ad8261086c565b602082019050919050565b600060208201905081810360008301526108d181610895565b9050919050565b7f5468657265206172652070726f706f73616c7320746965642077697468206d6f60008201527f737420766f746573000000000000000000000000000000000000000000000000602082015250565b600061093460288361085b565b915061093f826108d8565b604082019050919050565b6000602082019050818103600083015261096381610927565b9050919050565b7f566f74696e6720706f77657220736d616c6c6572207468616e20616d6f756e74600082015250565b60006109a060208361085b565b91506109ab8261096a565b602082019050919050565b600060208201905081810360008301526109cf81610993565b9050919050565b60006109e182610586565b91506109ec83610586565b9250828201905080821115610a0457610a036107e4565b5b92915050565b610a13816106ef565b82525050565b6000604082019050610a2e6000830185610a0a565b610a3b6020830184610602565b9392505050565b600081519050610a5181610590565b92915050565b600060208284031215610a6d57610a6c610581565b5b6000610a7b84828501610a42565b91505092915050565b6000610a8f82610586565b9150610a9a83610586565b9250828203905081811115610ab257610ab16107e4565b5b9291505056fea2646970667358221220a60eb07c7f67550f4c1c0069ca4df3fba4a9e13dc3f289252749e8909697e52864736f6c63430008110033",
  "linkReferences": {},
  "deployedLinkReferences": {}
}